:020000040800F2
:1000000070060020CD010008050700088F050008D4
:1000100001070008F70200081D0B0008000000009F
:10002000000000000000000000000000F9070008C8
:10003000FB02000800000000B5070008E508000802
:10004000E7010008E7010008E7010008E7010008F0
:10005000E7010008E7010008FD020008E7010008C9
:10006000E7010008E7010008E7010008E7010008D0
:10007000E7010008E7010008E7010008E7010008C0
:10008000E7010008E7010008E7010008E7010008B0
:10009000E7010008E7010008E7010008E7010008A0
:1000A000E7010008E7010008E7010008E701000890
:1000B000E7010008E7010008E7010008E701000880
:1000C000E7010008E7010008E7010008E701000870
:1000D000E7010008E7010008E7010008E701000860
:1000E000E7010008E7010008E7010008E701000850
:1000F000E7010008E7010008E7010008E701000840
:10010000E7010008E7010008E7010008E70100082F
:10011000E7010008E701000849090008E7010008B5
:10012000E7010008E7010008E7010008E70100080F
:1001300000F002F800F03AF80AA090E8000C8244BF
:100140008344AAF10107DA4501D100F02FF8AFF29C
:10015000090EBAE80F0013F0010F18BFFB1A43F0A5
:1001600001031847900A0000B00A0000103A24BFAB
:1001700078C878C1FAD8520724BF30C830C144BF0C
:1001800004680C607047000000230024002500264E
:10019000103A28BF78C1FBD8520728BF30C148BFEA
:1001A0000B6070471FB51FBD10B510BD00F031F8D2
:1001B0001146FFF7F7FF00F0B3FC00F04FF803B46F
:1001C000FFF7F2FF03BC00F053F800000948804736
:1001D00009480047FEE7FEE7FEE7FEE7FEE7FEE729
:1001E000FEE7FEE7FEE7FEE704480549054A064B41
:1001F00070470000E9080008310100087000002085
:1002000070060020700200207002002070477047C6
:100210007047754600F028F8AE460500694653461B
:1002200020F00700854618B020B5FFF7DDFFBDE8D8
:1002300020404FF000064FF000074FF000084FF04D
:10024000000B21F00701AC46ACE8C009ACE8C009DE
:10025000ACE8C009ACE8C0098D4670470446AFF36E
:1002600000802046FFF7ABFF004870470C000020DD
:1002700001491820ABBEFEE726000200704710B50A
:1002800000F024F800F002F810BD00000EB50121C6
:10029000102000F091FA40F2E730ADF8040047205A
:1002A000ADF800006946084800F0E6FB0121064869
:1002B00000F05EFB01221146034800F07CFB0021A8
:1002C000014800F05BFB0EBD0010004008B54FF484
:1002D000E06000F065FA36208DF8000000208DF80F
:1002E000010003208DF8020001208DF8030068460C
:1002F00000F01EFA08BD00BFFEE7704710B50120F0
:1003000000F038F840B31548006888B101281ED1C4
:100310000020134908800121124800F02FFB0F48EC
:10032000006808B9012000E000200C4908600FE0D7
:1003300000210C4800F022FB0848006808B90120A1
:1003400000E000200549086000F0FAFB00E000BF73
:1003500000BF012000F008F810BD000008000020D8
:1003600004000020001000400149086070470000B0
:1003700014040140014600200022074B1B6803EAD9
:100380000102054B14331B680B4013B10AB1012065
:1003900000E00020704700000004014000212349D4
:1003A0008279002A3AD00A46126803689A430B46BB
:1003B0001A600A1D126803689A430B1D1A600279BD
:1003C00011440A6803681A430A60184A083212681E
:1003D00003689A43154B08331A601A1D12680368A4
:1003E0009A43124B0C331A604279102A0ED11A1F0D
:1003F000126803681A430D4B08331A601A1D1268FD
:1004000003681A43094B0C331A600DE0074942791F
:1004100011440A6803681A430A6005E0027911442E
:100420000A6803689A430A607047000000040140AC
:1004300030B500228B071C0F0F2303FA04F20B4B7D
:100440008C1053F824309343084C8D1044F8253019
:1004500023468C1053F824308C07240F00FA04F440
:100460002343024C8D1044F8253030BD0800014074
:100470002DE9F0410246002500260020002300243B
:10048000002791F803C00CF00F0591F803C00CF0A1
:10049000100CBCF1000F03D091F802C04CEA050526
:1004A00091F800C0BCF1000F31D0146800202BE09F
:1004B0004FF0010C0CFA00F3B1F800C00CEA03068F
:1004C0009E4220D183004FF00F0C0CFA03F7BC437F
:1004D00005FA03FC4CEA040491F803C0BCF1280FB0
:1004E00006D14FF0010C0CFA00FCC2F814C00AE06F
:1004F00091F803C0BCF1480F05D14FF0010C0CFA84
:1005000000FCC2F810C0401C0828D1D31460B1F818
:1005100000C0BCF1FF0F34DD546800202EE000F174
:10052000080C4FF0010808FA0CF3B1F800C00CEA0F
:1005300003069E4221D183004FF00F0C0CFA03F703
:10054000BC4305FA03FC4CEA040491F803C0BCF177
:10055000280F05D100F1080C08FA0CF8C2F8148035
:1005600091F803C0BCF1480F07D100F1080C4FF01F
:10057000010808FA0CF8C2F81080401C0828CED3F5
:100580005460BDE8F081416170470161704700BF70
:10059000FEE700000EB500F0B6F80121042000F0DF
:1005A0001BF90120ADF8080004208DF80B0002A90A
:1005B0000C48FFF75DFF0121084600F00DF900210E
:1005C0000846FFF735FF0120009000208DF8040059
:1005D00010208DF8050001208DF806006846FFF711
:1005E000DDFE0EBD0008014008B50121102000F01D
:1005F000F3F80820ADF8000010208DF8030001206A
:100600008DF8020069460248FFF732FF08BD00007E
:100610000010014000B589B00121042000F0DCF891
:100620000420ADF8200010208DF8230001208DF863
:10063000220008A92A48FFF71BFF0820ADF8200078
:1006400010208DF8230001208DF8220008A92448ED
:10065000FFF70EFF0121042000F0BEF84020ADF8A6
:100660001C0018208DF81F0001208DF81E0007A91E
:100670001B48FFF7FDFE0121022000F09DF8092034
:10068000ADF814004720ADF810000020ADF81200BE
:1006900004A9144800F0F0F96020ADF80000012032
:1006A000ADF802000020ADF808000F480088ADF852
:1006B000060069460B4800F087F90821094800F058
:1006C000CFF90121074800F059F904210448FFF748
:1006D0005CFF08210248FFF756FF09B000BD00008B
:1006E00000080140000400400000002010B504464E
:1006F0002146024800F0BDF910BD00000004004092
:1007000000BFFEE7704708B54FF4C06000F048F83E
:1007100006208DF8000001208DF8010000208DF8E2
:10072000020001208DF80300684600F001F808BDC2
:1007300070B5002100230F22C47804B3154C24683F
:1007400004F4E064C4F5E064210AC1F10403CA4082
:10075000447804FA03F184781440214309010E4CD3
:100760000678A155047804F01F050124AC400578F3
:100770006D11AD0005F1E025C5F8004109E00478F0
:1007800004F01F050124AC40044D0678761145F8AD
:10079000264070BD0CED00E000E400E080E100E0E8
:1007A00002490143024A1160704700000000FA0547
:1007B0000CED00E07047000029B1064AD2690243FF
:1007C000044BDA6104E0034AD2698243014BDA61E7
:1007D000704700000010024029B1064A92690243A6
:1007E000044B9A6104E0034A92698243014B9A6187
:1007F0007047000000100240704710B500F002F88A
:1008000010BD00000CB50020019000903348006836
:1008100040F480303149086000BF3048006800F47F
:10082000003000900198401C0190009818B9019880
:10083000B0F5A06FF1D12948006800F4003010B184
:100840000120009001E0002000900098012843D191
:100850002348006840F010002149086008460068FD
:1008600020F0030008600846006840F002000860BD
:100870001A48406819494860084640684860084678
:10088000406840F4806048600846406820F47C106E
:1008900048600846406840F4E81048600846006830
:1008A00040F08070086000BF0C48006800F00070E5
:1008B0000028F9D00948406820F003000749486043
:1008C0000846406840F00200486000BF03484068A6
:1008D00000F00C000828F9D10CBD00000010024007
:1008E000002002407047000010B51348006840F037
:1008F00001001149086008464068104908400E4947
:100900004860084600680E4908400B4908600846E0
:10091000006820F4802008600846406820F4FE004B
:1009200048604FF41F008860FFF767FF4FF00060DA
:100930000449086010BD0000001002400000FFF8EC
:10094000FFFFF6FE08ED00E010B50121064800F0BB
:1009500021F840B105480088401C04490880012165
:10096000014800F008F810BD00100040040000200D
:10097000CA4302827047CA430282704721B102888B
:1009800042F00102028004E002884FF6FE731A4032
:100990000280704730B50246002000230024158AEB
:1009A00005EA0103958905EA010413B10CB10120A0
:1009B00000E0002030BD1AB183890B43838102E03F
:1009C00083898B438381704770B500240022002304
:1009D000058C4FF6FE7635400584028C8388048BA7
:1009E0004FF68F752C40B51E2C400D882C43751E7C
:1009F0002A400D892A434D882A43144DA8420BD022
:100A0000134DA84208D0134DA84205D0124DA8425C
:100A100002D0124DA84213D14FF6F7752A404D89E6
:100A20002A434FF6FB752A408D882A434FF6FF650F
:100A30002B404FF6FF552B408D892B43CD892B43FF
:100A400083800483CD888586028470BD002C01409C
:100A50000034014000400140004401400048014092
:100A60000A460021018B4FF6F773194011430183A9
:100A70007047818670470000002202881D4B984213
:100A80000ED01D4B98420BD0B0F1804F08D01B4BBD
:100A9000984205D01A4B984202D01A4B984204D182
:100AA0004FF68F731A404B881A43174B984207D062
:100AB000164B984204D04FF6FF431A40CB881A4396
:100AC00002808B8883850B8803850A4B98420BD064
:100AD000094B984208D00E4B984205D00D4B9842D6
:100AE00002D00D4B984201D10B7A038601238382F9
:100AF00070470000002C0140003401400004004019
:100B000000080040000C00400010004000140040AD
:100B100000400140004401400048014000BFFEE7A2
:100B2000FFF778FDFFF736FDFFF7A9FBFFF75CFD48
:100B300003E002480088FFF7D9FDFAE70000002033
:100B400010B527480088B0F5FA6F24DB25480088E7
:100B500008B9012000E000202249088008460088EA
:100B600060B908212048FFF710FD08211F48FFF752
:100B70000CFD04211D48FFF706FD30E008211A484E
:100B8000FFF701FD04211948FFF7FFFC0821174872
:100B9000FFF7F9FC23E01348008810B101281CD1AD
:100BA0000DE013480088082803DB0820104908805E
:100BB00004E00F480088801C0D4908800EE00C48B6
:100BC0000088022803DC08200949088004E008485E
:100BD0000088801E0649088000E000BF00BF10BDED
:100BE0000400002002000020001001400008014025
:100BF00000000020140C0008000000200C00000081
:100C00006C010008200C00080C00002064060000A5
:100C10008801000808000100000000000100000039
:0400000508000131BD
:00000001FF
